:020000040800F2
:1000000080060020CD0100083107000829070008FC
:100010002D07000861030008F10900080000000036
:10002000000000000000000000000000710800084F
:1000300071030008000000004F0800088D09000847
:10004000E7010008E7010008E7010008E7010008F0
:10005000E7010008E7010008E70100087503000850
:10006000E7010008E7010008E7010008E7010008D0
:10007000E7010008E7010008E7010008E7010008C0
:10008000E7010008E7010008E7010008E7010008B0
:10009000E7010008E7010008E7010008E7010008A0
:1000A000E7010008E7010008E7010008E701000890
:1000B000E7010008E7010008E7010008E701000880
:1000C000E7010008E7010008E7010008E701000870
:1000D000E7010008E7010008E7010008E701000860
:1000E000E7010008E7010008E7010008E701000850
:1000F000E7010008E7010008E7010008E701000840
:10010000E7010008E7010008E7010008E70100082F
:10011000E7010008E7010008E7010008E70100081F
:10012000E7010008E7010008E7010008E70100080F
:1001300000F002F800F03AF80AA090E8000C8244BF
:100140008344AAF10107DA4501D100F02FF8AFF29C
:10015000090EBAE80F0013F0010F18BFFB1A43F0A5
:10016000010318475013000070130000103A24BF19
:1001700078C878C1FAD8520724BF30C830C144BF0C
:1001800004680C607047000000230024002500264E
:10019000103A28BF78C1FBD8520728BF30C148BFEA
:1001A0000B6070471FB51FBD10B510BD00F031F8D2
:1001B0001146FFF7F7FF00F057FE00F04FF803B4C9
:1001C000FFF7F2FF03BC00F057F800000948804732
:1001D00009480047FEE7FEE7FEE7FEE7FEE7FEE729
:1001E000FEE7FEE7FEE7FEE704480549054A064B41
:1001F00070470000910900083101000880000020CC
:100200008006002080020020800200207047704796
:100210007047754600F02CF8AE4605006946534617
:1002200020F00700854618B020B5FFF7DDFFBDE8D8
:1002300020404FF000064FF000074FF000084FF04D
:10024000000B21F00701AC46ACE8C009ACE8C009DE
:10025000ACE8C009ACE8C0098D46704710B504464B
:10026000AFF300802046BDE81040FFF7A8BF0000B4
:10027000004870471C00002001491820ABBEFEE773
:1002800026000200704700002DE9F04105460C46AB
:100290002C48854200D100262B48854200D10126FA
:1002A0002A48854200D102262948854200D10326EA
:1002B0002848854200D104262748854200D10526DA
:1002C0002648854200D10626012C00D10027022CA9
:1002D00000D10127042C00D10227082C00D10327CC
:1002E000102C00D10427202C00D10527402C00D150
:1002F0000627802C00D10727B4F5807F00D108277E
:10030000B4F5007F00D10927B4F5806F00D10A272A
:10031000B4F5006F00D10B27B4F5805F00D10C2736
:10032000B4F5005F00D10D27B4F5804F00D10E2742
:10033000B4F5004F00D10F273946304600F002F9DE
:10034000BDE8F08100080140000C014000100140B0
:100350000014014000180140001C01400020014031
:1003600000BFFEE701480088704700000000002041
:100370007047000010B50749086800F015F840B153
:1003800005480088401C044908800249086800F0BC
:1003900005F810BD0400002000000020014908609D
:1003A0007047000014040140014600200022074B62
:1003B0001B6803EA0102054B14331B680B4013B1A1
:1003C0000AB1012000E00020704700000004014055
:1003D000002123498279002A3AD00A46126803682C
:1003E0009A430B461A600A1D126803689A430B1D54
:1003F0001A60027911440A6803681A430A60184AAD
:100400000832126803689A43154B08331A601A1DA4
:10041000126803689A43124B0C331A604279102A0F
:100420000ED11A1F126803681A430D4B08331A6065
:100430001A1D126803681A43094B0C331A600DE049
:100440000749427911440A6803681A430A6005E0C3
:10045000027911440A6803689A430A6070470000F1
:100460000004014070B504460D46012C01D1344909
:100470000860022C02D1022031490860042C02D10C
:1004800004202F490860082C02D108202C4908605C
:10049000102C02D110202A490860202C02D12020E3
:1004A00027490860402C02D1402025490860802C53
:1004B00002D1802022490860B4F5807F03D14FF437
:1004C00080701F490860B4F5007F03D14FF40070BD
:1004D0001B490860B4F5806F03D14FF48060184960
:1004E0000860B4F5006F03D14FF400601449086050
:1004F000B4F5805F03D14FF4805011490860B4F522
:10050000005F03D14FF400500D490860B4F5804FEF
:1005100003D14FF480400A490860B4F5004F03D17D
:100520004FF400400649086000200549087108465C
:100530004571012088710846FFF74AFF70BD000031
:100540000400002030B500228B071C0F0F2303FA94
:1005500004F20B4B8C1053F824309343084C8D104D
:1005600044F8253023468C1053F824308C07240F90
:1005700000FA04F42343024C8D1044F8253030BDBA
:10058000080001402DE9F041024600250026002028
:1005900000230024002791F803C00CF00F0591F808
:1005A00003C00CF0100CBCF1000F03D091F802C096
:1005B0004CEA050591F800C0BCF1000F31D0146879
:1005C00000202BE04FF0010C0CFA00F3B1F800C052
:1005D0000CEA03069E4220D183004FF00F0C0CFA68
:1005E00003F7BC4305FA03FC4CEA040491F803C08A
:1005F000BCF1280F06D14FF0010C0CFA00FCC2F838
:1006000014C00AE091F803C0BCF1480F05D14FF0C7
:10061000010C0CFA00FCC2F810C0401C0828D1D311
:100620001460B1F800C0BCF1FF0F34DD5468002045
:100630002EE000F1080C4FF0010808FA0CF3B1F8B5
:1006400000C00CEA03069E4221D183004FF00F0C3C
:100650000CFA03F7BC4305FA03FC4CEA040491F8D6
:1006600003C0BCF1280F05D100F1080C08FA0CF802
:10067000C2F8148091F803C0BCF1480F07D100F113
:10068000080C4FF0010808FA0CF8C2F81080401C62
:100690000828CED35460BDE8F081016170470AB1EB
:1006A000016100E041617047F8B504460D46174806
:1006B000844200D104261648844200D108261548F9
:1006C000844200D110261448844200D120261348C9
:1006D000844200D140261248844200D1802611482D
:1006E000844200D1861546F00100012100F0B0F8E7
:1006F00004208DF80300ADF8005003208DF80200AF
:1007000069462046FFF73EFFF8BD000000080140A3
:10071000000C01400010014000140140001801408D
:10072000001C01400020014000BFFEE700BFFEE7C3
:100730007047000070B5002100230F22C47804B375
:10074000154C246804F4E064C4F5E064210AC1F1A6
:100750000403CA40447804FA03F184781440214326
:1007600009010E4C0678A155047804F01F050124F8
:10077000AC4005786D11AD0005F1E025C5F80041EC
:1007800009E0047804F01F050124AC40044D06780C
:10079000761145F8264070BD0CED00E000E400E065
:1007A00080E100E002490143024A11607047000005
:1007B0000000FA050CED00E0F8B504460F4630469F
:1007C000FFF7F0FF012C00D10625022C00D10725F0
:1007D000042C00D10825082C00D10925102C00D1AB
:1007E0000A25202C00D11725402C00D11725802C5C
:1007F00000D11725B4F5807F00D11725B4F5007F0F
:1008000000D11725B4F5806F00D12825B4F5006F0D
:1008100000D12825B4F5805F00D12825B4F5005F0C
:1008200000D12825B4F5804F00D12825B4F5004F1C
:1008300000D128258DF8005001208DF801008DF899
:1008400002008DF803006846FFF774FFF8BD70479B
:1008500029B1064A92690243044B9A6104E0034AB3
:1008600092698243014B9A61704700000010024078
:1008700070472DE9F04107460C4615461E462146B5
:100880003846FFF711FF21463846FFF7FDFC2946A1
:100890002046FFF7E7FD31462046FFF78DFFBDE814
:1008A000F08110B500F002F810BD00000CB500207A
:1008B000019000903348006840F48030314908606E
:1008C00000BF3048006800F4003000900198401CE0
:1008D0000190009818B90198B0F5A06FF1D129489E
:1008E000006800F4003010B10120009001E0002009
:1008F00000900098012843D12348006840F0100080
:10090000214908600846006820F003000860084696
:10091000006840F0020008601A48406819494860C1
:100920000846406848600846406840F48060486077
:100930000846406820F47C1048600846406840F44F
:10094000E81048600846006840F08070086000BF0A
:100950000C48006800F000700028F9D00948406891
:1009600020F00300074948600846406840F0020054
:10097000486000BF0348406800F00C000828F9D127
:100980000CBD000000100240002002407047000033
:1009900010B51348006840F001001149086008468E
:1009A0004068104908400E494860084600680E49F2
:1009B00008400B4908600846006820F48020086061
:1009C0000846406820F4FE0048604FF41F0088602D
:1009D000FFF767FF4FF000600449086010BD00009A
:1009E000001002400000FFF8FFFFF6FE08ED00E0F7
:1009F00000BFFEE708B501210820FFF729FF2020EE
:100A0000ADF8000010208DF8030003208DF80200DF
:100A100069460F48FFF7B6FD0120ADF800006946B2
:100A20000B48FFF7AFFD0220ADF80000694608480B
:100A3000FFF7A8FD20210648FFF72FFE01210448FB
:100A4000FFF72BFE02210248FFF727FE08BD00003A
:100A5000000C014070B50646002410E0002221463B
:100A6000304600F002F9002505E00021304600F094
:100A700011F9681CC5B2802DF7DB601CC4B2082CCC
:100A8000ECDB70BD70B504460D46EAB2A188206863
:100A9000FFF705FE70BD70B504460D46EAB2E18869
:100AA0002068FFF7FCFD70BD2DE9F04780468946C0
:100AB00015461E46089F002417E0381B421E0A21D7
:100AC000404600F04AF9B6FBF0F00A21B0FBF1F223
:100AD00001FB120000F1300A2819C2B25346494600
:100AE000404600F071F8601CC4B2BC42E5DBBDE8D2
:100AF000F087000010B5044624492068884201D1DF
:100B00000420A06022492068884201D10820A0600A
:100B100020492068884201D11020A0601E49206829
:100B2000884201D12020A0601C492068884201D160
:100B30004020A0601A492068884201D18020A0602E
:100B400018492068884201D18015A0600121A06861
:100B5000FFF77EFE1421E1730321A173A088A08119
:100B600004F10C012068FFF70DFDE088A08104F17D
:100B70000C012068FFF706FD01212046FFF782FFE8
:100B800001212046FFF787FF10BD0000000801404B
:100B9000000C014000100140001401400018014009
:100BA000001C01400020014010B5044600212046F1
:100BB000FFF771FF01212046FFF764FF0121204666
:100BC000FFF769FF10BD00002DE9F04180460D469A
:100BD00016461F46701EC006020E681E4006010E15
:100BE000404600F042F800240AE0A7F12000144A31
:100BF00002EB0010015D404600F04CF8601CC4B2EE
:100C0000082CF2DB701EC006020E681E012303EBE7
:100C10004000C1B2404600F028F800240CE0A7F1E3
:100C20002000074A02EB001204F10800115C404664
:100C300000F030F8601CC4B2082CF0DBBDE8F08195
:100C4000C40E000810B5044601212046FFF723FF1B
:100C500001212046FFF716FF00212046FFF71BFF6A
:100C600000212046FFF70EFF10BD70B506460D4669
:100C7000144645F0B001304600F059F8102040EA23
:100C80001411304600F053F804F00F01304600F024
:100C90004EF870BD70B504460D462046FFF7D2FFF2
:100CA0007821204600F022F84021204600F01EF86E
:100CB0002946204600F01AF82046FFF775FF70BD60
:100CC0002DE9F0410746884616461D46002408E0F7
:100CD0002B5D3019C2B241463846FFF775FF601CE4
:100CE000C4B2285D0028F3D1BDE8F08170B5064696
:100CF0000D46002410E08020204100EA0501304626
:100D0000FFF7C9FE01213046FFF7BCFE0021304647
:100D1000FFF7B8FE601CC4B2082CECDB01213046A2
:100D2000FFF7B0FE00213046FFF7ACFE70BD70B596
:100D300004460D462046FFF785FF78212046FFF741
:100D4000D5FF00212046FFF7D1FF29462046FFF7B7
:100D5000CDFF2046FFF728FF70BD30B503460120C8
:100D600000E04843141EA2F10102FAD130BD2DE982
:100D7000F04704460D4616461F462560A680E780CC
:100D80004FF0000809E04FF0000901E009F1010906
:100D9000B9F57A7FFAD308F10108B8F57A7FF2D372
:100DA0002046FFF7A7FEAE212046FFF7C0FFD52162
:100DB0002046FFF7BCFF80212046FFF7B8FFA8219F
:100DC0002046FFF7B4FF3F212046FFF7B0FFD321B5
:100DD0002046FFF7ACFF00212046FFF7A8FF402187
:100DE0002046FFF7A4FFA1212046FFF7A0FFC8215E
:100DF0002046FFF79CFFDA212046FFF798FF1221DB
:100E00002046FFF794FF81212046FFF790FFCF2176
:100E10002046FFF78CFFD9212046FFF788FFF121FC
:100E20002046FFF784FFDB212046FFF780FF3021BB
:100E30002046FFF77CFFA4212046FFF778FFA6217C
:100E40002046FFF774FF8D212046FFF770FF142125
:100E50002046FFF76CFFAF212046FFF768FF2046D2
:100E6000FFF7F8FDBDE8F08708B5FFF7C3FD4FF4C5
:100E700000735A100E490F48FFF779FF4FF4A06333
:100E80000C2202210C48FFF7F4FC0CA302220121E2
:100E90000848FFF715FF0AE0FFF764FA044606204A
:100EA00023460822012100900248FFF7FDFDF3E7E9
:100EB000000C01400C00002000080140436F756EDB
:100EC000743A000000000000000000000000000074
:100ED00000000000000000F80000000000000033E7
:100EE0003000000000100C06100C0600000000008E
:100EF0000000000040C07840C0784000043F040477
:100F00003F040400007088FC08300000001820FF37
:100F1000211E0000F008F000E018000000211C0372
:100F20001E211E0000F00888700000001E212324EE
:100F30001927211010160E0000000000000000000C
:100F400000000000000000E018040200000000079C
:100F50001820400000020418E000000000402018A3
:100F600007000000404080F0804040000202010F76
:100F700001020200000000F0000000000101011F5A
:100F800001010100000000000000000080B07000BE
:100F9000000000000000000000000000000101014E
:100FA00001010101000000000000000000303000DD
:100FB00000000000000000008060180400601806B7
:100FC0000100000000E010080810E000000F1020F1
:100FD00020100F00001010F8000000000020203F3B
:100FE00020200000007008080888700000302824C5
:100FF0002221300000300888884830000018202066
:1010000020110E000000C02010F80000000704248A
:10101000243F240000F808888808080000192120CF
:1010200020110E0000E0108888180000000F112029
:1010300020110E0000380808C83808000000003FE2
:10104000000000000070880808887000001C222141
:1010500021221C0000E010080810E00000003122EE
:1010600022110F00000000C0C0000000000000308E
:1010700030000000000000800000000000008060E0
:101080000000000000008040201008000001020461
:101090000810200040404040404040000404040448
:1010A0000404040000081020408000000020100804
:1010B00004020100007048080808F0000000003039
:1010C00036010000C030C828E810E00007182724C7
:1010D00023140B000000C038E0000000203C230275
:1010E0000227382008F8888888700000203F2020D8
:1010F00020110E00C030080808083800071820200A
:101100002010080008F808080810E000203F202000
:1011100020100F0008F88888E8081000203F2020E1
:101120002320180008F88888E8081000203F2000D5
:1011300003000000C030080808380000071820200D
:10114000221E020008F808000008F808203F2101CC
:1011500001213F20000808F8080800000020203F77
:101160002020000000000808F8080800C0808080E7
:101170007F00000008F888C028180800203F2001E0
:101180002638200008F8080000000000203F20203A
:101190002020300008F8F800F8F80800203F003F51
:1011A000003F200008F830C00008F808203F200069
:1011B00007183F00E01008080810E0000F1020207A
:1011C00020100F0008F808080808F000203F21014F
:1011D00001010000E01008080810E0000F182424A6
:1011E00038504F0008F8888888887000203F200019
:1011F000030C3020007088080808380000382021CF
:1012000021221C00180808F8080818000000203FD8
:101210002000000008F808000008F808001F20203F
:1012200020201F000878880000C838080000073810
:101230000E010000F80800F80008F800033C070061
:10124000073C0300081868808068180820302C03C9
:10125000032C30200838C800C83808000000203FA0
:101260002000000010080808C8380800203826218F
:1012700020201800000000FE020202000000007F93
:1012800040404000000C30C00000000000000001A1
:101290000638C00000020202FE000000004040408C
:1012A0007F000000000004020202040000000000B1
:1012B000000000000000000000000000808080802E
:1012C0008080808000020204000000000000000016
:1012D00000000000000080808080000000192422AF
:1012E00022223F2008F8008080000000003F1120EB
:1012F00020110E000000008080800000000E1120F0
:1013000020201100000000808088F800000E1120CD
:1013100020103F200000808080800000001F2222DB
:1013200022221300008080F0888888180020203F47
:10133000202000000000808080808000006B94945A
:101340009493600008F8008080800000203F210016
:1013500000203F2000809898000000000020203FDF
:1013600020200000000000809898000000C08080CD
:10137000807F000008F8000080808000203F240269
:101380002D302000000808F8000000000020203F59
:10139000202000008080808080808000203F20000E
:1013A0003F20003F8080008080800000203F21009F
:1013B00000203F200000808080800000001F20204F
:1013C00020201F00808000808000000080FFA1207E
:1013D00020110E000000008080808000000E11208F
:1013E00020A0FF80808080008080800020203F211E
:1013F00020000100000080808080800000332424D1
:1014000024241900008080E0808000000000001F7C
:10141000202000008080000000808000001F20202D
:1014200020103F20808080000080808000010E30EE
:101430000806010080800080008080800F300C034F
:101440000C300F0000808000808080000020312E52
:101450000E312000808080000080808080818E702E
:101460001806010000808080808080000021302CE0
:101470002221300000000000807C020200000000F9
:10148000003F404000000000FF000000000000009E
:10149000FF0000000002027C800000000040403F8E
:1014A0000000000000060101020204040000000028
:1014B00000000000D4140008000000200C00000010
:1014C0006C010008E01400080C0000207406000005
:1014D000880100080000000000000000000000007B
:0400000508000131BD
:00000001FF
