:020000040800F2
:1000000090060020B1010008990300089103000840
:10001000950300086B0200080D05000800000000B1
:10002000000000000000000000000000BD03000808
:100030006F020008000000009B030008A9040008EC
:10004000CB010008CB010008CB010008CB01000860
:10005000CB010008CB010008CB010008CB01000850
:10006000CB010008CB010008CB010008CB01000840
:10007000CB010008CB010008CB010008CB01000830
:10008000CB010008CB010008CB010008CB01000820
:10009000CB010008CB010008CB010008CB01000810
:1000A000CB010008CB010008CB010008CB01000800
:1000B000CB010008CB010008CB010008CB010008F0
:1000C000CB010008CB010008CB010008CB010008E0
:1000D000CB010008CB010008CB010008CB010008D0
:1000E000CB010008CB010008CB010008CB010008C0
:1000F000CB010008CB010008CB010008CB010008B0
:10010000CB010008CB010008CB010008CB0100089F
:10011000CB010008CB010008CB010008CB0100088F
:10012000CB010008CB010008CB010008CB0100087F
:1001300000F002F800F02CF80AA090E8000C8244CD
:100140008344AAF10107DA4501D100F021F8AFF2AA
:10015000090EBAE80F0013F0010F18BFFB1A43F0A5
:1001600001031847800D0000900D000000230024BB
:1001700000250026103A28BF78C1FBD8520728BFB7
:1001800030C148BF0B6070471FB51FBD10B510BD13
:1001900000F031F81146FFF7F7FF00F093FB00F095
:1001A0004FF803B4FFF7F2FF03BC00F057F800006C
:1001B0000948804709480047FEE7FEE7FEE7FEE7FB
:1001C000FEE7FEE7FEE7FEE7FEE7FEE70448054937
:1001D000054A064B70470000AD04000831010008D5
:1001E0009000002090060020900200209002002045
:1001F000704770477047754600F02CF8AE46050012
:100200006946534620F00700854618B020B5FFF731
:10021000DDFFBDE820404FF000064FF000074FF033
:1002200000084FF0000B21F00701AC46ACE8C00914
:10023000ACE8C009ACE8C009ACE8C0098D4670471D
:1002400010B50446AFF300802046BDE81040FFF72C
:10025000A8BF000000487047300000200149182066
:10026000ABBEFEE726000200704700BFFEE7704706
:100270002DE9F0410246002500260020002300243D
:10028000002791F803C00CF00F0591F803C00CF0A3
:10029000100CBCF1000F03D091F802C04CEA050528
:1002A00091F800C0BCF1000F31D0146800202BE0A1
:1002B0004FF0010C0CFA00F3B1F800C00CEA030691
:1002C0009E4220D183004FF00F0C0CFA03F7BC4381
:1002D00005FA03FC4CEA040491F803C0BCF1280FB2
:1002E00006D14FF0010C0CFA00FCC2F814C00AE071
:1002F00091F803C0BCF1480F05D14FF0010C0CFA86
:1003000000FCC2F810C0401C0828D1D31460B1F81A
:1003100000C0BCF1FF0F34DD546800202EE000F176
:10032000080C4FF0010808FA0CF3B1F800C00CEA11
:1003300003069E4221D183004FF00F0C0CFA03F705
:10034000BC4305FA03FC4CEA040491F803C0BCF179
:10035000280F05D100F1080C08FA0CF8C2F8148037
:1003600091F803C0BCF1480F07D100F1080C4FF021
:10037000010808FA0CF8C2F81080401C0828CED3F7
:100380005460BDE8F0810AB1016100E0416170474D
:1003900000BFFEE700BFFEE77047704729B1064A7D
:1003A00092690243044B9A6104E0034A92698243D2
:1003B000014B9A617047000000100240704710B571
:1003C00000F002F810BD00000CB500200190009074
:1003D0003348006840F480303149086000BF30483D
:1003E000006800F4003000900198401C01900098D3
:1003F00018B90198B0F5A06FF1D12948006800F450
:10040000003010B10120009001E000200090009821
:10041000012843D12348006840F0100021490860BA
:100420000846006820F0030008600846006840F0B5
:10043000020008601A484068194948600846406848
:1004400048600846406840F480604860084640685C
:1004500020F47C1048600846406840F4E81048608A
:100460000846006840F08070086000BF0C480068D3
:1004700000F000700028F9D00948406820F003001F
:10048000074948600846406840F00200486000BFE5
:100490000348406800F00C000828F9D10CBD0000AA
:1004A00000100240002002407047000010B51348C1
:1004B000006840F001001149086008464068104992
:1004C00008400E494860084600680E4908400B493C
:1004D00008600846006820F48020086008464068EC
:1004E00020F4FE0048604FF41F008860FFF767FFAC
:1004F0004FF000600449086010BD00000010024089
:100500000000FFF8FFFFF6FE08ED00E000BFFEE789
:1005100070B50646002410E000222146304600F067
:10052000DCF8002505E00021304600F0EBF8681CFF
:10053000C5B2802DF7DB601CC4B2082CECDB70BDAB
:1005400070B504460D46EAB2A1882068FFF71BFF8C
:1005500070BD70B504460D46EAB2E1882068FFF729
:1005600012FF70BD10B5044624492068884201D1AD
:100570000420A06022492068884201D10820A060A0
:1005800020492068884201D11020A0601E492068BF
:10059000884201D12020A0601C492068884201D1F6
:1005A0004020A0601A492068884201D18020A060C4
:1005B00018492068884201D18015A0600121A068F7
:1005C000FFF7ECFE1421E1730321A173A088A08141
:1005D00004F10C012068FFF74BFEE088A08104F1D4
:1005E0000C012068FFF744FE01212046FFF7A8FF19
:1005F00001212046FFF7ADFF10BD000000080140BB
:10060000000C01400010014000140140001801409E
:10061000001C01400020014010B504460021204686
:10062000FFF797FF01212046FFF78AFF01212046AF
:10063000FFF78FFF10BD00002DE9F04180460D4609
:1006400016461F46701EC006020E681E4006010EAA
:10065000404600F042F800240AE0A7F12000144AC6
:1006600002EB0010015D404600F04CF8601CC4B283
:10067000082CF2DB701EC006020E681E012303EB7D
:100680004000C1B2404600F028F800240CE0A7F179
:100690002000074A02EB001204F10800115C4046FA
:1006A00000F030F8601CC4B2082CF0DBBDE8F0812B
:1006B000F408000810B5044601212046FFF749FF61
:1006C00001212046FFF73CFF00212046FFF741FFB4
:1006D00000212046FFF734FF10BD70B506460D46D9
:1006E000144645F0B001304600F059F8102040EAB9
:1006F0001411304600F053F804F00F01304600F0BA
:100700004EF870BD70B504460D462046FFF7D2FF87
:100710007821204600F022F84021204600F01EF803
:100720002946204600F01AF82046FFF775FF70BDF5
:100730002DE9F0410746884616461D46002408E08C
:100740002B5D3019C2B241463846FFF775FF601C79
:10075000C4B2285D0028F3D1BDE8F08170B506462B
:100760000D46002410E08020204100EA05013046BB
:10077000FFF7EFFE01213046FFF7E2FE0021304691
:10078000FFF7DEFE601CC4B2082CECDB0121304612
:10079000FFF7D6FE00213046FFF7D2FE70BD70B5E0
:1007A00004460D462046FFF785FF78212046FFF7D7
:1007B000D5FF00212046FFF7D1FF29462046FFF74D
:1007C000CDFF2046FFF728FF70BD2DE9F047044616
:1007D0000D4616461F462560A680E7804FF00008AC
:1007E00009E04FF0000901E009F10109B9F57A7F4C
:1007F000FAD308F10108B8F57A7FF2D32046FFF763
:10080000B1FEAE212046FFF7CAFFD5212046FFF7F3
:10081000C6FF80212046FFF7C2FFA8212046FFF730
:10082000BEFF3F212046FFF7BAFFD3212046FFF746
:10083000B6FF00212046FFF7B2FF40212046FFF718
:10084000AEFFA1212046FFF7AAFFC8212046FFF7EF
:10085000A6FFDA212046FFF7A2FF12212046FFF76C
:100860009EFF81212046FFF79AFFCF212046FFF708
:1008700096FFD9212046FFF792FFF1212046FFF78E
:100880008EFFDB212046FFF78AFF30212046FFF74D
:1008900086FFA4212046FFF782FFA6212046FFF70E
:1008A0007EFF8D212046FFF77AFF14212046FFF7B7
:1008B00076FFAF212046FFF772FF2046FFF728FEA4
:1008C000BDE8F0874FF400735A1006490648FFF759
:1008D0007CFF06A3022201210348FFF729FF00BF86
:1008E000FEE70000000C014000000020524D53487C
:1008F00045000000000000000000000000000000B3
:1009000000000000000000F80000000000000033BC
:100910003000000000100C06100C06000000000063
:100920000000000040C07840C0784000043F04044C
:100930003F040400007088FC08300000001820FF0D
:10094000211E0000F008F000E018000000211C0348
:100950001E211E0000F00888700000001E212324C4
:100960001927211010160E000000000000000000E2
:1009700000000000000000E0180402000000000772
:100980001820400000020418E00000000040201879
:1009900007000000404080F0804040000202010F4C
:1009A00001020200000000F0000000000101011F30
:1009B00001010100000000000000000080B0700094
:1009C0000000000000000000000000000001010124
:1009D00001010101000000000000000000303000B3
:1009E000000000000000000080601804006018068D
:1009F0000100000000E010080810E000000F1020C7
:100A000020100F00001010F8000000000020203F10
:100A1000202000000070080808887000003028249A
:100A2000222130000030088888483000001820203B
:100A300020110E000000C02010F800000007042460
:100A4000243F240000F808888808080000192120A5
:100A500020110E0000E0108888180000000F1120FF
:100A600020110E0000380808C83808000000003FB8
:100A7000000000000070880808887000001C222117
:100A800021221C0000E010080810E00000003122C4
:100A900022110F00000000C0C00000000000003064
:100AA00030000000000000800000000000008060B6
:100AB0000000000000008040201008000001020437
:100AC000081020004040404040404000040404041E
:100AD00004040400000810204080000000201008DA
:100AE00004020100007048080808F000000000300F
:100AF00036010000C030C828E810E000071827249D
:100B000023140B000000C038E0000000203C23024A
:100B10000227382008F8888888700000203F2020AD
:100B200020110E00C03008080808380007182020DF
:100B30002010080008F808080810E000203F2020D6
:100B400020100F0008F88888E8081000203F2020B7
:100B50002320180008F88888E8081000203F2000AB
:100B600003000000C03008080838000007182020E3
:100B7000221E020008F808000008F808203F2101A2
:100B800001213F20000808F8080800000020203F4D
:100B90002020000000000808F8080800C0808080BD
:100BA0007F00000008F888C028180800203F2001B6
:100BB0002638200008F8080000000000203F202010
:100BC0002020300008F8F800F8F80800203F003F27
:100BD000003F200008F830C00008F808203F20003F
:100BE00007183F00E01008080810E0000F10202050
:100BF00020100F0008F808080808F000203F210125
:100C000001010000E01008080810E0000F1824247B
:100C100038504F0008F8888888887000203F2000EE
:100C2000030C3020007088080808380000382021A4
:100C300021221C00180808F8080818000000203FAE
:100C40002000000008F808000008F808001F202015
:100C500020201F000878880000C8380800000738E6
:100C60000E010000F80800F80008F800033C070037
:100C7000073C0300081868808068180820302C039F
:100C8000032C30200838C800C83808000000203F76
:100C90002000000010080808C83808002038262165
:100CA00020201800000000FE020202000000007F69
:100CB00040404000000C30C0000000000000000177
:100CC0000638C00000020202FE0000000040404062
:100CD0007F00000000000402020204000000000087
:100CE0000000000000000000000000008080808004
:100CF00080808080000202040000000000000000EC
:100D00000000000000008080808000000019242284
:100D100022223F2008F8008080000000003F1120C0
:100D200020110E000000008080800000000E1120C5
:100D300020201100000000808088F800000E1120A3
:100D400020103F200000808080800000001F2222B1
:100D500022221300008080F0888888180020203F1D
:100D6000202000000000808080808000006B949430
:100D70009493600008F8008080800000203F2100EC
:100D800000203F2000809898000000000020203FB5
:100D900020200000000000809898000000C08080A3
:100DA000807F000008F8000080808000203F24023F
:100DB0002D302000000808F8000000000020203F2F
:100DC000202000008080808080808000203F2000E4
:100DD0003F20003F8080008080800000203F210075
:100DE00000203F200000808080800000001F202025
:100DF00020201F00808000808000000080FFA12054
:100E000020110E000000008080808000000E112064
:100E100020A0FF80808080008080800020203F21F3
:100E200020000100000080808080800000332424A6
:100E300024241900008080E0808000000000001F52
:100E4000202000008080000000808000001F202003
:100E500020103F20808080000080808000010E30C4
:100E60000806010080800080008080800F300C0325
:100E70000C300F0000808000808080000020312E28
:100E80000E312000808080000080808080818E7004
:100E90001806010000808080808080000021302CB6
:100EA0002221300000000000807C020200000000CF
:100EB000003F404000000000FF0000000000000074
:100EC000FF0000000002027C800000000040403F64
:100ED00000000000000601010202040400000000FE
:100EE00000000000F40E0008000000209006000042
:040EF0006C01000889
:0400000508000131BD
:00000001FF
